{
    "_format": "hh-sol-artifact-1",
    "contractName": "GrtDispute",
    "sourceName": "contracts/GrtDispute.sol",
    "abi": [
        {
            "anonymous": false,
            "inputs": [
                {
                    "indexed": false,
                    "internalType": "uint8",
                    "name": "version",
                    "type": "uint8"
                }
            ],
            "name": "Initialized",
            "type": "event"
        },
        {
            "anonymous": false,
            "inputs": [
                {
                    "indexed": true,
                    "internalType": "uint256",
                    "name": "_questionId",
                    "type": "uint256"
                },
                {
                    "indexed": true,
                    "internalType": "bytes32",
                    "name": "_realityQuestionId",
                    "type": "bytes32"
                }
            ],
            "name": "LogQuestionCreated",
            "type": "event"
        },
        {
            "anonymous": false,
            "inputs": [
                {
                    "indexed": true,
                    "internalType": "uint256",
                    "name": "_templateId",
                    "type": "uint256"
                }
            ],
            "name": "LogTemplateCreated",
            "type": "event"
        },
        {
            "anonymous": false,
            "inputs": [
                {
                    "indexed": true,
                    "internalType": "address",
                    "name": "previousOwner",
                    "type": "address"
                },
                {
                    "indexed": true,
                    "internalType": "address",
                    "name": "newOwner",
                    "type": "address"
                }
            ],
            "name": "OwnershipTransferred",
            "type": "event"
        },
        {
            "inputs": [
                {
                    "internalType": "string",
                    "name": "question",
                    "type": "string"
                },
                {
                    "internalType": "uint256",
                    "name": "templateId",
                    "type": "uint256"
                },
                {
                    "internalType": "bytes32",
                    "name": "txHashOffer",
                    "type": "bytes32"
                },
                {
                    "internalType": "address",
                    "name": "fromOffer",
                    "type": "address"
                },
                {
                    "internalType": "address",
                    "name": "toOffer",
                    "type": "address"
                },
                {
                    "internalType": "address",
                    "name": "tokenOffer",
                    "type": "address"
                },
                {
                    "internalType": "uint256",
                    "name": "amountOffer",
                    "type": "uint256"
                },
                {
                    "internalType": "uint256",
                    "name": "chainIdOffer",
                    "type": "uint256"
                }
            ],
            "name": "createQuestion",
            "outputs": [
                {
                    "internalType": "bytes32",
                    "name": "",
                    "type": "bytes32"
                },
                {
                    "components": [
                        {
                            "internalType": "bytes32",
                            "name": "txHash",
                            "type": "bytes32"
                        },
                        {
                            "internalType": "address",
                            "name": "from",
                            "type": "address"
                        },
                        {
                            "internalType": "address",
                            "name": "to",
                            "type": "address"
                        },
                        {
                            "internalType": "address",
                            "name": "token",
                            "type": "address"
                        },
                        {
                            "internalType": "uint256",
                            "name": "amount",
                            "type": "uint256"
                        },
                        {
                            "internalType": "uint256",
                            "name": "chainId",
                            "type": "uint256"
                        }
                    ],
                    "internalType": "struct GrtDispute.QuestionReality",
                    "name": "",
                    "type": "tuple"
                }
            ],
            "stateMutability": "payable",
            "type": "function"
        },
        {
            "inputs": [
                {
                    "internalType": "string",
                    "name": "templateERC20",
                    "type": "string"
                }
            ],
            "name": "createRealityTemplate",
            "outputs": [
                {
                    "internalType": "uint256",
                    "name": "",
                    "type": "uint256"
                }
            ],
            "stateMutability": "nonpayable",
            "type": "function"
        },
        {
            "inputs": [
                {
                    "internalType": "bytes32",
                    "name": "question_id",
                    "type": "bytes32"
                }
            ],
            "name": "getFinalAnswer",
            "outputs": [
                {
                    "internalType": "bytes32",
                    "name": "",
                    "type": "bytes32"
                }
            ],
            "stateMutability": "view",
            "type": "function"
        },
        {
            "inputs": [
                {
                    "internalType": "bytes32",
                    "name": "question_id",
                    "type": "bytes32"
                }
            ],
            "name": "getHistoryHash",
            "outputs": [
                {
                    "internalType": "bytes32",
                    "name": "",
                    "type": "bytes32"
                }
            ],
            "stateMutability": "view",
            "type": "function"
        },
        {
            "inputs": [
                {
                    "internalType": "bytes32",
                    "name": "question_id",
                    "type": "bytes32"
                }
            ],
            "name": "isFinalized",
            "outputs": [
                {
                    "internalType": "bool",
                    "name": "",
                    "type": "bool"
                }
            ],
            "stateMutability": "view",
            "type": "function"
        },
        {
            "inputs": [],
            "name": "owner",
            "outputs": [
                {
                    "internalType": "address",
                    "name": "",
                    "type": "address"
                }
            ],
            "stateMutability": "view",
            "type": "function"
        },
        {
            "inputs": [],
            "name": "realityAddress",
            "outputs": [
                {
                    "internalType": "address",
                    "name": "",
                    "type": "address"
                }
            ],
            "stateMutability": "view",
            "type": "function"
        },
        {
            "inputs": [],
            "name": "renounceOwnership",
            "outputs": [],
            "stateMutability": "nonpayable",
            "type": "function"
        },
        {
            "inputs": [
                {
                    "internalType": "address",
                    "name": "addr",
                    "type": "address"
                }
            ],
            "name": "setAddrReality",
            "outputs": [],
            "stateMutability": "nonpayable",
            "type": "function"
        },
        {
            "inputs": [
                {
                    "internalType": "address",
                    "name": "newOwner",
                    "type": "address"
                }
            ],
            "name": "transferOwnership",
            "outputs": [],
            "stateMutability": "nonpayable",
            "type": "function"
        }
    ],
    "bytecode": "0x608060405234801561001057600080fd5b50610a7d806100206000396000f3fe6080604052600436106100b15760003560e01c806382ffa9f711610069578063a462fb7b1161004e578063a462fb7b1461020e578063d0d89b521461022e578063f2fde38b1461024e57600080fd5b806382ffa9f7146101d05780638da5cb5b146101f057600080fd5b80636c94ab561161009a5780636c94ab5614610157578063715018a6146101895780637f8d429e146101a057600080fd5b80630cd2c190146100b657806350aa25c1146100e9575b600080fd5b3480156100c257600080fd5b506100d66100d1366004610843565b61026e565b6040519081526020015b60405180910390f35b6100fc6100f7366004610897565b61033b565b6040805192835281516020808501919091528201516001600160a01b03908116848301529082015181166060808501919091528201511660808084019190915281015160a080840191909152015160c082015260e0016100e0565b34801561016357600080fd5b506065546001600160a01b03165b6040516001600160a01b0390911681526020016100e0565b34801561019557600080fd5b5061019e61048e565b005b3480156101ac57600080fd5b506101c06101bb36600461092d565b6104a2565b60405190151581526020016100e0565b3480156101dc57600080fd5b506100d66101eb36600461092d565b61052f565b3480156101fc57600080fd5b506033546001600160a01b0316610171565b34801561021a57600080fd5b506100d661022936600461092d565b6105b7565b34801561023a57600080fd5b5061019e610249366004610946565b610602565b34801561025a57600080fd5b5061019e610269366004610946565b610639565b60006102786106ce565b6065546040517f83bf46090000000000000000000000000000000000000000000000000000000081526000916001600160a01b0316906383bf4609906102c29086906004016109ae565b6020604051808303816000875af11580156102e1573d6000803e3d6000fd5b505050506040513d601f19601f8201168201806040525081019061030591906109c1565b60405190915081907fde1fee73d594c5ee6f6c6b881755c9ae50066f625c46ddb6c999718cd7ff5dbd90600090a290505b919050565b6040805160c081018252600080825260208201819052918101829052606081018290526080810182905260a081018290526000606560009054906101000a90046001600160a01b03166001600160a01b031663762c38fd348c8e30620151806000806040518863ffffffff1660e01b81526004016103be969594939291906109da565b60206040518083038185885af11580156103dc573d6000803e3d6000fd5b50505050506040513d601f19601f8201168201806040525081019061040191906109c1565b606680546000908152606760205260408082208490559154915192935083927f6f7a36c171b57b55db60e78468575f6d1dc1917523429ef3e458caf26ae2ea4d9190a36040805160c081018252998a526001600160a01b0398891660208b0152968816968901969096525050919093166060850152608084019290925260a0830191909152939092509050565b6104966106ce565b6104a06000610728565b565b6065546040517f7f8d429e000000000000000000000000000000000000000000000000000000008152600481018390526000916001600160a01b031690637f8d429e90602401602060405180830381865afa158015610505573d6000803e3d6000fd5b505050506040513d601f19601f820116820180604052508101906105299190610a25565b92915050565b6065546040517f82ffa9f7000000000000000000000000000000000000000000000000000000008152600481018390526000916001600160a01b0316906382ffa9f7906024015b602060405180830381865afa158015610593573d6000803e3d6000fd5b505050506040513d601f19601f8201168201806040525081019061052991906109c1565b6065546040517fa462fb7b000000000000000000000000000000000000000000000000000000008152600481018390526000916001600160a01b03169063a462fb7b90602401610576565b61060a6106ce565b6065805473ffffffffffffffffffffffffffffffffffffffff19166001600160a01b0392909216919091179055565b6106416106ce565b6001600160a01b0381166106c25760405162461bcd60e51b815260206004820152602660248201527f4f776e61626c653a206e6577206f776e657220697320746865207a65726f206160448201527f646472657373000000000000000000000000000000000000000000000000000060648201526084015b60405180910390fd5b6106cb81610728565b50565b6033546001600160a01b031633146104a05760405162461bcd60e51b815260206004820181905260248201527f4f776e61626c653a2063616c6c6572206973206e6f7420746865206f776e657260448201526064016106b9565b603380546001600160a01b0383811673ffffffffffffffffffffffffffffffffffffffff19831681179093556040519116919082907f8be0079c531659141344cd1fd0a4f28419497f9722a3daafe3b4186f6b6457e090600090a35050565b7f4e487b7100000000000000000000000000000000000000000000000000000000600052604160045260246000fd5b600082601f8301126107c757600080fd5b813567ffffffffffffffff808211156107e2576107e2610787565b604051601f8301601f19908116603f0116810190828211818310171561080a5761080a610787565b8160405283815286602085880101111561082357600080fd5b836020870160208301376000602085830101528094505050505092915050565b60006020828403121561085557600080fd5b813567ffffffffffffffff81111561086c57600080fd5b610878848285016107b6565b949350505050565b80356001600160a01b038116811461033657600080fd5b600080600080600080600080610100898b0312156108b457600080fd5b883567ffffffffffffffff8111156108cb57600080fd5b6108d78b828c016107b6565b98505060208901359650604089013595506108f460608a01610880565b945061090260808a01610880565b935061091060a08a01610880565b925060c0890135915060e089013590509295985092959890939650565b60006020828403121561093f57600080fd5b5035919050565b60006020828403121561095857600080fd5b61096182610880565b9392505050565b6000815180845260005b8181101561098e57602081850181015186830182015201610972565b506000602082860101526020601f19601f83011685010191505092915050565b6020815260006109616020830184610968565b6000602082840312156109d357600080fd5b5051919050565b86815260c0602082015260006109f360c0830188610968565b6001600160a01b039690961660408301525063ffffffff938416606082015291909216608082015260a0015292915050565b600060208284031215610a3757600080fd5b8151801515811461096157600080fdfea26469706673582212204f69dda7637f572504d3cb91be528bb580c6c8f228e4947b1f5c625a77a5fdd564736f6c63430008110033",
    "linkReferences": {},
    "deployedLinkReferences": {}
}