{
    "_format": "hh-sol-artifact-1",
    "contractName": "GrtPool",
    "sourceName": "contracts/GrtPool.sol",
    "abi": [
        {
            "anonymous": false,
            "inputs": [
                {
                    "indexed": false,
                    "internalType": "uint8",
                    "name": "version",
                    "type": "uint8"
                }
            ],
            "name": "Initialized",
            "type": "event"
        },
        {
            "anonymous": false,
            "inputs": [
                {
                    "indexed": true,
                    "internalType": "bytes32",
                    "name": "_idRequest",
                    "type": "bytes32"
                },
                {
                    "indexed": true,
                    "internalType": "uint256",
                    "name": "_idOffer",
                    "type": "uint256"
                }
            ],
            "name": "LogAcceptOffer",
            "type": "event"
        },
        {
            "anonymous": false,
            "inputs": [
                {
                    "indexed": true,
                    "internalType": "bytes32",
                    "name": "_idRequest",
                    "type": "bytes32"
                },
                {
                    "indexed": true,
                    "internalType": "uint256",
                    "name": "_idOffer",
                    "type": "uint256"
                }
            ],
            "name": "LogCreateOffer",
            "type": "event"
        },
        {
            "anonymous": false,
            "inputs": [
                {
                    "indexed": true,
                    "internalType": "bytes32",
                    "name": "_idRequest",
                    "type": "bytes32"
                },
                {
                    "indexed": true,
                    "internalType": "address",
                    "name": "_token",
                    "type": "address"
                },
                {
                    "indexed": true,
                    "internalType": "uint256",
                    "name": "_amount",
                    "type": "uint256"
                },
                {
                    "indexed": false,
                    "internalType": "uint256",
                    "name": "_chainId",
                    "type": "uint256"
                }
            ],
            "name": "LogDeposit",
            "type": "event"
        },
        {
            "anonymous": false,
            "inputs": [
                {
                    "indexed": true,
                    "internalType": "bytes32",
                    "name": "_idRequest",
                    "type": "bytes32"
                },
                {
                    "indexed": true,
                    "internalType": "uint256",
                    "name": "_idOffer",
                    "type": "uint256"
                }
            ],
            "name": "LogOfferPaidCrossChain",
            "type": "event"
        },
        {
            "anonymous": false,
            "inputs": [
                {
                    "indexed": true,
                    "internalType": "bytes32",
                    "name": "_idRequest",
                    "type": "bytes32"
                },
                {
                    "indexed": true,
                    "internalType": "uint256",
                    "name": "_idOffer",
                    "type": "uint256"
                }
            ],
            "name": "LogOfferPaidOnChain",
            "type": "event"
        },
        {
            "anonymous": false,
            "inputs": [
                {
                    "indexed": true,
                    "internalType": "uint256",
                    "name": "_questionId",
                    "type": "uint256"
                },
                {
                    "indexed": true,
                    "internalType": "bytes32",
                    "name": "_realityQuestionId",
                    "type": "bytes32"
                }
            ],
            "name": "LogQuestionCreated",
            "type": "event"
        },
        {
            "anonymous": false,
            "inputs": [
                {
                    "indexed": true,
                    "internalType": "bytes32",
                    "name": "_idRequest",
                    "type": "bytes32"
                },
                {
                    "indexed": true,
                    "internalType": "uint256",
                    "name": "_idOffer",
                    "type": "uint256"
                }
            ],
            "name": "LogRejectOffer",
            "type": "event"
        },
        {
            "anonymous": false,
            "inputs": [
                {
                    "indexed": true,
                    "internalType": "bytes32",
                    "name": "_idRequest",
                    "type": "bytes32"
                },
                {
                    "indexed": true,
                    "internalType": "address",
                    "name": "_token",
                    "type": "address"
                },
                {
                    "indexed": true,
                    "internalType": "uint256",
                    "name": "_amount",
                    "type": "uint256"
                },
                {
                    "indexed": false,
                    "internalType": "uint256",
                    "name": "_chainId",
                    "type": "uint256"
                }
            ],
            "name": "LogRequest",
            "type": "event"
        },
        {
            "anonymous": false,
            "inputs": [
                {
                    "indexed": true,
                    "internalType": "address",
                    "name": "_user",
                    "type": "address"
                },
                {
                    "indexed": true,
                    "internalType": "uint256",
                    "name": "_amount",
                    "type": "uint256"
                }
            ],
            "name": "LogStake",
            "type": "event"
        },
        {
            "anonymous": false,
            "inputs": [
                {
                    "indexed": true,
                    "internalType": "uint256",
                    "name": "_templateId",
                    "type": "uint256"
                }
            ],
            "name": "LogTemplateCreated",
            "type": "event"
        },
        {
            "anonymous": false,
            "inputs": [
                {
                    "indexed": true,
                    "internalType": "address",
                    "name": "previousOwner",
                    "type": "address"
                },
                {
                    "indexed": true,
                    "internalType": "address",
                    "name": "newOwner",
                    "type": "address"
                }
            ],
            "name": "OwnershipTransferred",
            "type": "event"
        },
        {
            "inputs": [
                {
                    "internalType": "bytes32",
                    "name": "idRequest",
                    "type": "bytes32"
                },
                {
                    "internalType": "uint256",
                    "name": "idOffer",
                    "type": "uint256"
                }
            ],
            "name": "acceptOffer",
            "outputs": [
                {
                    "internalType": "bool",
                    "name": "",
                    "type": "bool"
                }
            ],
            "stateMutability": "nonpayable",
            "type": "function"
        },
        {
            "inputs": [
                {
                    "internalType": "bytes32",
                    "name": "idRequest",
                    "type": "bytes32"
                },
                {
                    "internalType": "uint256",
                    "name": "idOffer",
                    "type": "uint256"
                },
                {
                    "internalType": "bytes32",
                    "name": "questionId",
                    "type": "bytes32"
                },
                {
                    "internalType": "bytes32[]",
                    "name": "history_hashes",
                    "type": "bytes32[]"
                },
                {
                    "internalType": "address[]",
                    "name": "addrs",
                    "type": "address[]"
                },
                {
                    "internalType": "uint256[]",
                    "name": "bonds",
                    "type": "uint256[]"
                },
                {
                    "internalType": "bytes32[]",
                    "name": "answers",
                    "type": "bytes32[]"
                }
            ],
            "name": "claimGRTWithDispute",
            "outputs": [
                {
                    "internalType": "bool",
                    "name": "",
                    "type": "bool"
                }
            ],
            "stateMutability": "nonpayable",
            "type": "function"
        },
        {
            "inputs": [
                {
                    "internalType": "bytes32",
                    "name": "idRequest",
                    "type": "bytes32"
                },
                {
                    "internalType": "uint256",
                    "name": "idOffer",
                    "type": "uint256"
                }
            ],
            "name": "claimGRTWithoutDispute",
            "outputs": [
                {
                    "internalType": "bool",
                    "name": "",
                    "type": "bool"
                }
            ],
            "stateMutability": "nonpayable",
            "type": "function"
        },
        {
            "inputs": [
                {
                    "internalType": "bytes32",
                    "name": "idRequest",
                    "type": "bytes32"
                },
                {
                    "internalType": "uint256",
                    "name": "amount",
                    "type": "uint256"
                }
            ],
            "name": "createOffer",
            "outputs": [
                {
                    "internalType": "bool",
                    "name": "",
                    "type": "bool"
                }
            ],
            "stateMutability": "nonpayable",
            "type": "function"
        },
        {
            "inputs": [
                {
                    "internalType": "string",
                    "name": "question",
                    "type": "string"
                },
                {
                    "internalType": "uint256",
                    "name": "templateId",
                    "type": "uint256"
                },
                {
                    "internalType": "bytes32",
                    "name": "txHashOffer",
                    "type": "bytes32"
                },
                {
                    "internalType": "address",
                    "name": "fromOffer",
                    "type": "address"
                },
                {
                    "internalType": "address",
                    "name": "toOffer",
                    "type": "address"
                },
                {
                    "internalType": "address",
                    "name": "tokenOffer",
                    "type": "address"
                },
                {
                    "internalType": "uint256",
                    "name": "amountOffer",
                    "type": "uint256"
                },
                {
                    "internalType": "uint256",
                    "name": "chainIdOffer",
                    "type": "uint256"
                }
            ],
            "name": "createQuestion",
            "outputs": [
                {
                    "internalType": "bytes32",
                    "name": "",
                    "type": "bytes32"
                },
                {
                    "components": [
                        {
                            "internalType": "bytes32",
                            "name": "txHash",
                            "type": "bytes32"
                        },
                        {
                            "internalType": "address",
                            "name": "from",
                            "type": "address"
                        },
                        {
                            "internalType": "address",
                            "name": "to",
                            "type": "address"
                        },
                        {
                            "internalType": "address",
                            "name": "token",
                            "type": "address"
                        },
                        {
                            "internalType": "uint256",
                            "name": "amount",
                            "type": "uint256"
                        },
                        {
                            "internalType": "uint256",
                            "name": "chainId",
                            "type": "uint256"
                        }
                    ],
                    "internalType": "struct GrtDispute.QuestionReality",
                    "name": "",
                    "type": "tuple"
                }
            ],
            "stateMutability": "payable",
            "type": "function"
        },
        {
            "inputs": [
                {
                    "internalType": "string",
                    "name": "templateERC20",
                    "type": "string"
                }
            ],
            "name": "createRealityTemplate",
            "outputs": [
                {
                    "internalType": "uint256",
                    "name": "",
                    "type": "uint256"
                }
            ],
            "stateMutability": "nonpayable",
            "type": "function"
        },
        {
            "inputs": [
                {
                    "internalType": "uint256",
                    "name": "nonce",
                    "type": "uint256"
                },
                {
                    "internalType": "uint256",
                    "name": "amntDepGRT",
                    "type": "uint256"
                },
                {
                    "internalType": "address",
                    "name": "tokenRequest",
                    "type": "address"
                },
                {
                    "internalType": "uint256",
                    "name": "amntReq",
                    "type": "uint256"
                },
                {
                    "internalType": "uint256",
                    "name": "chnIdReq",
                    "type": "uint256"
                },
                {
                    "internalType": "address",
                    "name": "destAddr",
                    "type": "address"
                }
            ],
            "name": "depositGRTRequestERC20",
            "outputs": [
                {
                    "internalType": "bool",
                    "name": "",
                    "type": "bool"
                }
            ],
            "stateMutability": "nonpayable",
            "type": "function"
        },
        {
            "inputs": [
                {
                    "internalType": "uint256",
                    "name": "nonce",
                    "type": "uint256"
                },
                {
                    "internalType": "uint256",
                    "name": "amntDepGRT",
                    "type": "uint256"
                },
                {
                    "internalType": "uint256",
                    "name": "amntReq",
                    "type": "uint256"
                },
                {
                    "internalType": "uint256",
                    "name": "chnIdReq",
                    "type": "uint256"
                },
                {
                    "internalType": "address",
                    "name": "destAddr",
                    "type": "address"
                }
            ],
            "name": "depositGRTRequestNative",
            "outputs": [
                {
                    "internalType": "bool",
                    "name": "",
                    "type": "bool"
                }
            ],
            "stateMutability": "nonpayable",
            "type": "function"
        },
        {
            "inputs": [
                {
                    "internalType": "bytes32",
                    "name": "idRequest",
                    "type": "bytes32"
                }
            ],
            "name": "getDepositAmount",
            "outputs": [
                {
                    "internalType": "uint256",
                    "name": "",
                    "type": "uint256"
                }
            ],
            "stateMutability": "view",
            "type": "function"
        },
        {
            "inputs": [
                {
                    "internalType": "bytes32",
                    "name": "idRequest",
                    "type": "bytes32"
                }
            ],
            "name": "getDepositChainId",
            "outputs": [
                {
                    "internalType": "uint256",
                    "name": "",
                    "type": "uint256"
                }
            ],
            "stateMutability": "view",
            "type": "function"
        },
        {
            "inputs": [
                {
                    "internalType": "bytes32",
                    "name": "idRequest",
                    "type": "bytes32"
                }
            ],
            "name": "getDepositToken",
            "outputs": [
                {
                    "internalType": "address",
                    "name": "",
                    "type": "address"
                }
            ],
            "stateMutability": "view",
            "type": "function"
        },
        {
            "inputs": [
                {
                    "internalType": "bytes32",
                    "name": "question_id",
                    "type": "bytes32"
                }
            ],
            "name": "getFinalAnswer",
            "outputs": [
                {
                    "internalType": "bytes32",
                    "name": "",
                    "type": "bytes32"
                }
            ],
            "stateMutability": "view",
            "type": "function"
        },
        {
            "inputs": [
                {
                    "internalType": "bytes32",
                    "name": "question_id",
                    "type": "bytes32"
                }
            ],
            "name": "getHistoryHash",
            "outputs": [
                {
                    "internalType": "bytes32",
                    "name": "",
                    "type": "bytes32"
                }
            ],
            "stateMutability": "view",
            "type": "function"
        },
        {
            "inputs": [
                {
                    "internalType": "address",
                    "name": "user",
                    "type": "address"
                }
            ],
            "name": "getNonce",
            "outputs": [
                {
                    "internalType": "uint256",
                    "name": "",
                    "type": "uint256"
                }
            ],
            "stateMutability": "view",
            "type": "function"
        },
        {
            "inputs": [
                {
                    "internalType": "bytes32",
                    "name": "idRequest",
                    "type": "bytes32"
                },
                {
                    "internalType": "uint256",
                    "name": "idOffer",
                    "type": "uint256"
                }
            ],
            "name": "getOfferAmount",
            "outputs": [
                {
                    "internalType": "uint256",
                    "name": "",
                    "type": "uint256"
                }
            ],
            "stateMutability": "view",
            "type": "function"
        },
        {
            "inputs": [
                {
                    "internalType": "bytes32",
                    "name": "idRequest",
                    "type": "bytes32"
                },
                {
                    "internalType": "uint256",
                    "name": "idOffer",
                    "type": "uint256"
                }
            ],
            "name": "getOfferCreator",
            "outputs": [
                {
                    "internalType": "address",
                    "name": "",
                    "type": "address"
                }
            ],
            "stateMutability": "view",
            "type": "function"
        },
        {
            "inputs": [
                {
                    "internalType": "bytes32",
                    "name": "idRequest",
                    "type": "bytes32"
                }
            ],
            "name": "getRecipient",
            "outputs": [
                {
                    "internalType": "address",
                    "name": "",
                    "type": "address"
                }
            ],
            "stateMutability": "view",
            "type": "function"
        },
        {
            "inputs": [
                {
                    "internalType": "bytes32",
                    "name": "idRequest",
                    "type": "bytes32"
                }
            ],
            "name": "getRequestAmount",
            "outputs": [
                {
                    "internalType": "uint256",
                    "name": "",
                    "type": "uint256"
                }
            ],
            "stateMutability": "view",
            "type": "function"
        },
        {
            "inputs": [
                {
                    "internalType": "bytes32",
                    "name": "idRequest",
                    "type": "bytes32"
                }
            ],
            "name": "getRequestChainId",
            "outputs": [
                {
                    "internalType": "uint256",
                    "name": "",
                    "type": "uint256"
                }
            ],
            "stateMutability": "view",
            "type": "function"
        },
        {
            "inputs": [
                {
                    "internalType": "bytes32",
                    "name": "idRequest",
                    "type": "bytes32"
                }
            ],
            "name": "getRequestToken",
            "outputs": [
                {
                    "internalType": "address",
                    "name": "",
                    "type": "address"
                }
            ],
            "stateMutability": "view",
            "type": "function"
        },
        {
            "inputs": [
                {
                    "internalType": "bytes32",
                    "name": "idRequest",
                    "type": "bytes32"
                }
            ],
            "name": "getRequester",
            "outputs": [
                {
                    "internalType": "address",
                    "name": "",
                    "type": "address"
                }
            ],
            "stateMutability": "view",
            "type": "function"
        },
        {
            "inputs": [],
            "name": "grtAddress",
            "outputs": [
                {
                    "internalType": "address",
                    "name": "",
                    "type": "address"
                }
            ],
            "stateMutability": "view",
            "type": "function"
        },
        {
            "inputs": [],
            "name": "grtChainId",
            "outputs": [
                {
                    "internalType": "uint256",
                    "name": "",
                    "type": "uint256"
                }
            ],
            "stateMutability": "view",
            "type": "function"
        },
        {
            "inputs": [
                {
                    "internalType": "address",
                    "name": "addrGRT",
                    "type": "address"
                },
                {
                    "internalType": "uint256",
                    "name": "chainIdGRT",
                    "type": "uint256"
                },
                {
                    "internalType": "address",
                    "name": "addrReality",
                    "type": "address"
                }
            ],
            "name": "initializePool",
            "outputs": [],
            "stateMutability": "nonpayable",
            "type": "function"
        },
        {
            "inputs": [
                {
                    "internalType": "bytes32",
                    "name": "question_id",
                    "type": "bytes32"
                }
            ],
            "name": "isFinalized",
            "outputs": [
                {
                    "internalType": "bool",
                    "name": "",
                    "type": "bool"
                }
            ],
            "stateMutability": "view",
            "type": "function"
        },
        {
            "inputs": [
                {
                    "internalType": "bytes32",
                    "name": "idRequest",
                    "type": "bytes32"
                },
                {
                    "internalType": "uint256",
                    "name": "idOffer",
                    "type": "uint256"
                }
            ],
            "name": "isOfferAccepted",
            "outputs": [
                {
                    "internalType": "bool",
                    "name": "",
                    "type": "bool"
                }
            ],
            "stateMutability": "view",
            "type": "function"
        },
        {
            "inputs": [
                {
                    "internalType": "bytes32",
                    "name": "idRequest",
                    "type": "bytes32"
                },
                {
                    "internalType": "uint256",
                    "name": "idOffer",
                    "type": "uint256"
                }
            ],
            "name": "isOfferPaid",
            "outputs": [
                {
                    "internalType": "bool",
                    "name": "",
                    "type": "bool"
                }
            ],
            "stateMutability": "view",
            "type": "function"
        },
        {
            "inputs": [
                {
                    "internalType": "bytes32",
                    "name": "idRequest",
                    "type": "bytes32"
                }
            ],
            "name": "isrequest",
            "outputs": [
                {
                    "internalType": "bool",
                    "name": "",
                    "type": "bool"
                }
            ],
            "stateMutability": "view",
            "type": "function"
        },
        {
            "inputs": [
                {
                    "internalType": "bytes32",
                    "name": "idRequest",
                    "type": "bytes32"
                }
            ],
            "name": "nbrOffersRequest",
            "outputs": [
                {
                    "internalType": "uint256",
                    "name": "",
                    "type": "uint256"
                }
            ],
            "stateMutability": "view",
            "type": "function"
        },
        {
            "inputs": [],
            "name": "owner",
            "outputs": [
                {
                    "internalType": "address",
                    "name": "",
                    "type": "address"
                }
            ],
            "stateMutability": "view",
            "type": "function"
        },
        {
            "inputs": [
                {
                    "internalType": "bytes32",
                    "name": "idRequest",
                    "type": "bytes32"
                },
                {
                    "internalType": "uint256",
                    "name": "idOffer",
                    "type": "uint256"
                }
            ],
            "name": "payOfferOnChainERC20",
            "outputs": [
                {
                    "internalType": "bool",
                    "name": "",
                    "type": "bool"
                }
            ],
            "stateMutability": "nonpayable",
            "type": "function"
        },
        {
            "inputs": [
                {
                    "internalType": "bytes32",
                    "name": "idRequest",
                    "type": "bytes32"
                },
                {
                    "internalType": "uint256",
                    "name": "idOffer",
                    "type": "uint256"
                }
            ],
            "name": "payOfferOnChainNative",
            "outputs": [
                {
                    "internalType": "bool",
                    "name": "",
                    "type": "bool"
                }
            ],
            "stateMutability": "payable",
            "type": "function"
        },
        {
            "inputs": [],
            "name": "realityAddress",
            "outputs": [
                {
                    "internalType": "address",
                    "name": "",
                    "type": "address"
                }
            ],
            "stateMutability": "view",
            "type": "function"
        },
        {
            "inputs": [
                {
                    "internalType": "bytes32",
                    "name": "idRequest",
                    "type": "bytes32"
                },
                {
                    "internalType": "uint256",
                    "name": "idOffer",
                    "type": "uint256"
                }
            ],
            "name": "rejectOffer",
            "outputs": [
                {
                    "internalType": "bool",
                    "name": "",
                    "type": "bool"
                }
            ],
            "stateMutability": "nonpayable",
            "type": "function"
        },
        {
            "inputs": [],
            "name": "renounceOwnership",
            "outputs": [],
            "stateMutability": "nonpayable",
            "type": "function"
        },
        {
            "inputs": [
                {
                    "internalType": "address",
                    "name": "addr",
                    "type": "address"
                }
            ],
            "name": "setAddrReality",
            "outputs": [],
            "stateMutability": "nonpayable",
            "type": "function"
        },
        {
            "inputs": [
                {
                    "internalType": "address",
                    "name": "token",
                    "type": "address"
                }
            ],
            "name": "setGRTAddr",
            "outputs": [],
            "stateMutability": "nonpayable",
            "type": "function"
        },
        {
            "inputs": [
                {
                    "internalType": "uint256",
                    "name": "chainId",
                    "type": "uint256"
                }
            ],
            "name": "setGRTChainId",
            "outputs": [],
            "stateMutability": "nonpayable",
            "type": "function"
        },
        {
            "inputs": [
                {
                    "internalType": "uint256",
                    "name": "amount",
                    "type": "uint256"
                }
            ],
            "name": "stakeGRT",
            "outputs": [
                {
                    "internalType": "bool",
                    "name": "",
                    "type": "bool"
                }
            ],
            "stateMutability": "nonpayable",
            "type": "function"
        },
        {
            "inputs": [
                {
                    "internalType": "address",
                    "name": "account",
                    "type": "address"
                }
            ],
            "name": "stakeOf",
            "outputs": [
                {
                    "internalType": "uint256",
                    "name": "",
                    "type": "uint256"
                }
            ],
            "stateMutability": "view",
            "type": "function"
        },
        {
            "inputs": [
                {
                    "internalType": "address",
                    "name": "newOwner",
                    "type": "address"
                }
            ],
            "name": "transferOwnership",
            "outputs": [],
            "stateMutability": "nonpayable",
            "type": "function"
        }
    ],
    "bytecode": "0x608060405234801561001057600080fd5b50613268806100206000396000f3fe6080604052600436106102c65760003560e01c80636bb1b9ea11610179578063b44a468b116100d6578063d79ff4b61161008a578063ef50e1d611610064578063ef50e1d614610951578063f2fde38b14610971578063fbc6da751461099157600080fd5b8063d79ff4b6146108ca578063e9d9769f146108fa578063ec1ad8d31461090f57600080fd5b8063bfe51359116100bb578063bfe513591461085c578063d0d89b521461087a578063d4a4429a1461089a57600080fd5b8063b44a468b14610803578063b4bed2c91461082357600080fd5b80638da5cb5b1161012d5780639f36b244116101125780639f36b244146107a3578063a462fb7b146107c3578063ace7c37e146107e357600080fd5b80638da5cb5b146107655780638f09f9301461078357600080fd5b8063715018a61161015e578063715018a6146107105780637f8d429e1461072557806382ffa9f71461074557600080fd5b80636bb1b9ea146106df5780636c94ab56146106f257600080fd5b80633e4e872f1161022757806358381bbd116101db5780635b7a9341116101c05780635b7a934114610650578063606e3112146106805780636ad5c6e9146106bf57600080fd5b806358381bbd146105d5578063584396bc1461060b57600080fd5b8063426233601161020c578063426233601461051157806350aa25c11461054757806352430b55146105b557600080fd5b80633e4e872f146104a0578063412ff893146104f157600080fd5b80632ab18a501161027e5780632c3daef6116102635780632c3daef61461041a5780632d0335ab1461044a5780633e314b5a1461048057600080fd5b80632ab18a50146103a05780632ab89ca1146103d357600080fd5b806314ddc253116102af57806314ddc2531461032e57806317030add1461035e578063254a2ccc1461038057600080fd5b80630cd2c190146102cb5780631208a32b146102fe575b600080fd5b3480156102d757600080fd5b506102eb6102e6366004612c72565b6109ca565b6040519081526020015b60405180910390f35b34801561030a57600080fd5b5061031e610319366004612caf565b610a97565b60405190151581526020016102f5565b34801561033a57600080fd5b506102eb610349366004612cd1565b6000908152606a602052604090206006015490565b34801561036a57600080fd5b5061037e610379366004612cd1565b610c7f565b005b34801561038c57600080fd5b5061031e61039b366004612caf565b610c8c565b3480156103ac57600080fd5b5061031e6103bb366004612cd1565b6000908152606a602052604090206008015460ff1690565b3480156103df57600080fd5b5061031e6103ee366004612caf565b6000918252606a60209081526040808420928452600a9092019052902060020154610100900460ff1690565b34801561042657600080fd5b506102eb610435366004612cd1565b6000908152606a602052604090206003015490565b34801561045657600080fd5b506102eb610465366004612d01565b6001600160a01b03166000908152606c602052604090205490565b34801561048c57600080fd5b5061031e61049b366004612caf565b610e75565b3480156104ac57600080fd5b506104d96104bb366004612cd1565b6000908152606a60205260409020600501546001600160a01b031690565b6040516001600160a01b0390911681526020016102f5565b3480156104fd57600080fd5b5061037e61050c366004612d01565b6111a6565b34801561051d57600080fd5b506102eb61052c366004612d01565b6001600160a01b03166000908152606b602052604090205490565b61055a610555366004612d1c565b6111d0565b6040805192835281516020808501919091528201516001600160a01b03908116848301529082015181166060808501919091528201511660808084019190915281015160a080840191909152015160c082015260e0016102f5565b3480156105c157600080fd5b5061031e6105d0366004612db2565b611323565b3480156105e157600080fd5b506104d96105f0366004612cd1565b6000908152606a60205260409020546001600160a01b031690565b34801561061757600080fd5b506104d9610626366004612caf565b6000918252606a60209081526040808420928452600a90920190529020546001600160a01b031690565b34801561065c57600080fd5b506102eb61066b366004612cd1565b6000908152606a602052604090206009015490565b34801561068c57600080fd5b506102eb61069b366004612caf565b6000918252606a60209081526040808420928452600a909201905290206001015490565b3480156106cb57600080fd5b5061031e6106da366004612efb565b61148f565b61031e6106ed366004612caf565b611774565b3480156106fe57600080fd5b506065546001600160a01b03166104d9565b34801561071c57600080fd5b5061037e611b7d565b34801561073157600080fd5b5061031e610740366004612cd1565b611b91565b34801561075157600080fd5b506102eb610760366004612cd1565b611c18565b34801561077157600080fd5b506033546001600160a01b03166104d9565b34801561078f57600080fd5b5061031e61079e366004612fc5565b611ca0565b3480156107af57600080fd5b5061031e6107be366004612caf565b611e09565b3480156107cf57600080fd5b506102eb6107de366004612cd1565b6121bc565b3480156107ef57600080fd5b5061031e6107fe366004612cd1565b612207565b34801561080f57600080fd5b5061031e61081e366004612caf565b61226c565b34801561082f57600080fd5b506104d961083e366004612cd1565b6000908152606a60205260409020600201546001600160a01b031690565b34801561086857600080fd5b506068546001600160a01b03166104d9565b34801561088657600080fd5b5061037e610895366004612d01565b612588565b3480156108a657600080fd5b506102eb6108b5366004612cd1565b6000908152606a602052604090206004015490565b3480156108d657600080fd5b506102eb6108e5366004612cd1565b6000908152606a602052604090206007015490565b34801561090657600080fd5b506069546102eb565b34801561091b57600080fd5b5061031e61092a366004612caf565b6000918252606a60209081526040808420928452600a909201905290206002015460ff1690565b34801561095d57600080fd5b5061037e61096c36600461300e565b6125b2565b34801561097d57600080fd5b5061037e61098c366004612d01565b61271e565b34801561099d57600080fd5b506104d96109ac366004612cd1565b6000908152606a60205260409020600101546001600160a01b031690565b60006109d46127ae565b6065546040517f83bf46090000000000000000000000000000000000000000000000000000000081526000916001600160a01b0316906383bf460990610a1e908690600401613090565b6020604051808303816000875af1158015610a3d573d6000803e3d6000fd5b505050506040513d601f19601f82011682018060405250810190610a6191906130a3565b60405190915081907fde1fee73d594c5ee6f6c6b881755c9ae50066f625c46ddb6c999718cd7ff5dbd90600090a290505b919050565b6000828152606a602052604081206008015460ff16610b0b5760405162461bcd60e51b815260206004820152602560248201527f47525420706f6f6c3a20746865207265717565737420646f6573206e6f742065604482015264786973742160d81b60648201526084015b60405180910390fd5b336000908152606b6020526040902054600110610b905760405162461bcd60e51b815260206004820152602e60248201527f47525420706f6f6c3a20796f7572207374616b6520616d6f756e74206973206e60448201527f6f742073756666696369656e74210000000000000000000000000000000000006064820152608401610b02565b6000838152606a60205260408082206009015490519091829186917faed3c68f95c4339dc5dbe18d7eacbd00b479e30a26fecf3597ac76f6d743ecc291a36040805160808101825233815260208082018681526000838501818152606085018281528a8352606a808652878420898552600a81018752978420965187546001600160a01b0319166001600160a01b0390911617875593516001870155905160029095018054915161ffff1990921695151561ff00191695909517610100911515919091021790935587835290526009909101805491610c6e836130d2565b919050555060019150505b92915050565b610c876127ae565b606955565b6000828152606a60209081526040808320848452600a0190915281206002015460ff16610d215760405162461bcd60e51b815260206004820152602860248201527f47525420706f6f6c3a20746865206f66666572206973206e6f7420616363657060448201527f74656420796574210000000000000000000000000000000000000000000000006064820152608401610b02565b6000838152606a60209081526040808320858452600a01909152902060020154610100900460ff1615610da95760405162461bcd60e51b815260206004820152602a60248201527f47525420706f6f6c3a20746865206f666665722068617320616c7265616479206044820152696265656e20706169642160b01b6064820152608401610b02565b6000838152606a60205260409020546001600160a01b03163314610e1b5760405162461bcd60e51b8152602060048201526024808201527f47525420706f6f6c3a20796f7520617265206e6f7420746865207265717565736044820152637465722160e01b6064820152608401610b02565b6000838152606a60209081526040808320858452600a01909152808220600201805460ff1916905551839185917f8eb3c3b0aa4ce8f4ea417700b7cd919af02b24a8b8346dfd2b6bdf08612aa74c9190a350600192915050565b6000828152606a602052604081206008015460ff16610ee45760405162461bcd60e51b815260206004820152602560248201527f47525420706f6f6c3a20746865207265717565737420646f6573206e6f742065604482015264786973742160d81b6064820152608401610b02565b6000838152606a60209081526040808320858452600a019091529020546001600160a01b0316610f7c5760405162461bcd60e51b815260206004820152602360248201527f47525420706f6f6c3a20746865206f6666657220646f6573206e6f742065786960448201527f73742100000000000000000000000000000000000000000000000000000000006064820152608401610b02565b6000838152606a60209081526040808320858452600a0190915290206002015460ff16156110125760405162461bcd60e51b815260206004820152602e60248201527f47525420706f6f6c3a20746865206f666665722068617320616c72656164792060448201527f6265656e206163636570746564210000000000000000000000000000000000006064820152608401610b02565b6000838152606a60205260409020546001600160a01b031633146110845760405162461bcd60e51b8152602060048201526024808201527f47525420706f6f6c3a20796f7520617265206e6f7420746865207265717565736044820152637465722160e01b6064820152608401610b02565b60005b6000848152606a6020526040902060090154811015611148576000848152606a60209081526040808320848452600a0190915290206002015460ff16156111365760405162461bcd60e51b815260206004820152603e60248201527f47525420706f6f6c3a20746865726520697320616c726561647920616e20616360448201527f636570746564206f6666657220666f72207468697320726571756573742100006064820152608401610b02565b80611140816130d2565b915050611087565b506000838152606a60209081526040808320858452600a01909152808220600201805460ff1916600117905551839185917f805ad3493798d2bba49fb177c42928ec4d30e9880662953ca090cdfaac00153c9190a350600192915050565b6111ae6127ae565b606880546001600160a01b0319166001600160a01b0392909216919091179055565b6040805160c081018252600080825260208201819052918101829052606081018290526080810182905260a081018290526000606560009054906101000a90046001600160a01b03166001600160a01b031663762c38fd348c8e30620151806000806040518863ffffffff1660e01b8152600401611253969594939291906130eb565b60206040518083038185885af1158015611271573d6000803e3d6000fd5b50505050506040513d601f19601f8201168201806040525081019061129691906130a3565b606680546000908152606760205260408082208490559154915192935083927f6f7a36c171b57b55db60e78468575f6d1dc1917523429ef3e458caf26ae2ea4d9190a36040805160c081018252998a526001600160a01b0398891660208b0152968816968901969096525050919093166060850152608084019290925260a0830191909152939092509050565b336000908152606c602052604081205487146113a75760405162461bcd60e51b815260206004820152603060248201527f47525420706f6f6c3a2074686973206e6f6e63652068617320616c726561647960448201527f206265656e207375626d697474656421000000000000000000000000000000006064820152608401610b02565b6113b086612808565b50606880546069546040805160208082018d905233606090811b6bffffffffffffffffffffffff199081168486015286821b811660548501529683018d9052608883018590528b811b871660a884015260bc83018b905260dc83018a905288901b90951660fc820152815160f08183030181526101108201808452815191909601209290945251909289926001600160a01b03169184917fc50426a58c328dde98bf1e6e781031dc1d928393568d3b55d05eaff42762200a91908190036101300190a4611481818888888888612860565b506001979650505050505050565b6000878152606a60209081526040808320898452600a01909152812060020154610100900460ff16156115175760405162461bcd60e51b815260206004820152602a60248201527f47525420706f6f6c3a20746865206f666665722068617320616c7265616479206044820152696265656e20706169642160b01b6064820152608401610b02565b6000888152606a602090815260408083208a8452600a019091529020546001600160a01b031633146115fd5760405162461bcd60e51b815260206004820152606e60248201527f47525420706f6f6c3a20796f752068617665206e6f74206d61646520616e206f60448201527f6666657220666f722074686973207265717565737420616e642074686572656660648201527f6f726520796f7520617265206e6f7420656e7469746c656420746f206d616b6560848201527f207468697320726571756573742100000000000000000000000000000000000060a482015260c401610b02565b61160a86868686866129a4565b6040517f7472756500000000000000000000000000000000000000000000000000000000602082015260240160405160208183030381529060405280519060200120611655876121bc565b03611765576068546000898152606a602081815260408084208c8552600a81018352818520548e865293909252600390910154905163a9059cbb60e01b81526001600160a01b03928316600482015260248101919091529192169063a9059cbb906044016020604051808303816000875af11580156116d8573d6000803e3d6000fd5b505050506040513d601f19601f820116820180604052508101906116fc9190613136565b9050801561175e5760405188908a907f2b447358a077dedddad023f2778d84afc7de0e9e65674cbface9e94b74916ff090600090a36000898152606a602090815260408083208b8452600a019091529020600201805461ff0019166101001790555b9050611769565b5060005b979650505050505050565b6000828152606a60209081526040808320848452600a0190915281206002015460ff166117fa5760405162461bcd60e51b815260206004820152602e60248201527f47525420706f6f6c3a20746865206f6666657220686173206e6f74206265656e60448201526d206163636570746564207965742160901b6064820152608401610b02565b6000838152606a60209081526040808320858452600a01909152902060020154610100900460ff16156118825760405162461bcd60e51b815260206004820152602a60248201527f47525420706f6f6c3a20746865206f666665722068617320616c7265616479206044820152696265656e20706169642160b01b6064820152608401610b02565b6000838152606a602052604090206007015446146119085760405162461bcd60e51b815260206004820152603560248201527f47525420706f6f6c3a20746865206f666665722073686f756c64206e6f74206260448201527f652070616964206f6e207468697320636861696e2100000000000000000000006064820152608401610b02565b6000838152606a6020526040902060060154341461198e5760405162461bcd60e51b815260206004820152602e60248201527f47525420706f6f6c3a2074686520616d6f756e7420646f6573206e6f74206d6160448201527f74636820746865206f66666572210000000000000000000000000000000000006064820152608401610b02565b6000838152606a60209081526040808320858452600a019091529020546001600160a01b03163314611a285760405162461bcd60e51b815260206004820152603060248201527f47525420706f6f6c3a20796f7520617265206e6f7420616c6c6f77656420746f60448201527f207061792074686973206f6666657221000000000000000000000000000000006064820152608401610b02565b6000838152606a60205260408082206001015490516001600160a01b039091169034908381818185875af1925050503d8060008114611a83576040519150601f19603f3d011682016040523d82523d6000602084013e611a88565b606091505b505090508015611b76576068546000858152606a60205260409081902060030154905163a9059cbb60e01b815233600482015260248101919091526001600160a01b039091169063a9059cbb906044016020604051808303816000875af1158015611af7573d6000803e3d6000fd5b505050506040513d601f19601f82011682018060405250810190611b1b9190613136565b50604051839085907f691646be7d559e2b121f8ba51f09665c76183fe7abc9918ed643da3c219bde5f90600090a36000848152606a60209081526040808320868452600a019091529020600201805461ff0019166101001790555b9392505050565b611b856127ae565b611b8f6000612a2e565b565b6065546040517f7f8d429e000000000000000000000000000000000000000000000000000000008152600481018390526000916001600160a01b031690637f8d429e90602401602060405180830381865afa158015611bf4573d6000803e3d6000fd5b505050506040513d601f19601f82011682018060405250810190610c799190613136565b6065546040517f82ffa9f7000000000000000000000000000000000000000000000000000000008152600481018390526000916001600160a01b0316906382ffa9f7906024015b602060405180830381865afa158015611c7c573d6000803e3d6000fd5b505050506040513d601f19601f82011682018060405250810190610c7991906130a3565b336000908152606c60205260408120548614611d245760405162461bcd60e51b815260206004820152603060248201527f47525420706f6f6c3a2074686973206e6f6e63652068617320616c726561647960448201527f206265656e207375626d697474656421000000000000000000000000000000006064820152608401610b02565b611d2d85612808565b50606880546069546040805160208082018c90526bffffffffffffffffffffffff1933606090811b82168486015286811b821660548501529683018c905260888301859052600060a884015260bc83018b905260dc83018a90529588901b90951660fc820152815160f08183030181526101108201808452815191909601209290945251909288926001600160a01b03169184917fc50426a58c328dde98bf1e6e781031dc1d928393568d3b55d05eaff42762200a91908190036101300190a4611dfc81876000888888612860565b5060019695505050505050565b6000828152606a60209081526040808320848452600a0190915281206002015460ff16611e8f5760405162461bcd60e51b815260206004820152602e60248201527f47525420706f6f6c3a20746865206f6666657220686173206e6f74206265656e60448201526d206163636570746564207965742160901b6064820152608401610b02565b6000838152606a60209081526040808320858452600a01909152902060020154610100900460ff1615611f175760405162461bcd60e51b815260206004820152602a60248201527f47525420706f6f6c3a20746865206f666665722068617320616c7265616479206044820152696265656e20706169642160b01b6064820152608401610b02565b6000838152606a60205260409020600701544614611f9d5760405162461bcd60e51b815260206004820152603560248201527f47525420706f6f6c3a20746865206f666665722073686f756c64206e6f74206260448201527f652070616964206f6e207468697320636861696e2100000000000000000000006064820152608401610b02565b6000838152606a60209081526040808320858452600a019091529020546001600160a01b031633146120375760405162461bcd60e51b815260206004820152603060248201527f47525420706f6f6c3a20796f7520617265206e6f7420616c6c6f77656420746f60448201527f207061792074686973206f6666657221000000000000000000000000000000006064820152608401610b02565b6000838152606a6020526040908190206005810154600182015460069092015492516323b872dd60e01b81523360048201526001600160a01b039283166024820152604481019390935216906323b872dd906064016020604051808303816000875af11580156120ab573d6000803e3d6000fd5b505050506040513d601f19601f820116820180604052508101906120cf9190613136565b506068546000848152606a60205260409081902060030154905163a9059cbb60e01b815233600482015260248101919091526001600160a01b039091169063a9059cbb906044016020604051808303816000875af1158015612135573d6000803e3d6000fd5b505050506040513d601f19601f820116820180604052508101906121599190613136565b50604051829084907f691646be7d559e2b121f8ba51f09665c76183fe7abc9918ed643da3c219bde5f90600090a3506000828152606a60209081526040808320848452600a019091529020600201805461ff001916610100179055600192915050565b6065546040517fa462fb7b000000000000000000000000000000000000000000000000000000008152600481018390526000916001600160a01b03169063a462fb7b90602401611c5f565b600061221282612808565b50604051829033907f3dbdcfd4c1f2e08931aae3d544e149a1e643143f5234d166fe3debb78338849590600090a3336000908152606b60205260408120805484929061225f908490613158565b9091555060019392505050565b6000828152606a602052604081206008015460ff166122db5760405162461bcd60e51b815260206004820152602560248201527f47525420706f6f6c3a20746865207265717565737420646f6573206e6f742065604482015264786973742160d81b6064820152608401610b02565b6000838152606a60209081526040808320858452600a0190915290206002015460ff166123615760405162461bcd60e51b815260206004820152602e60248201527f47525420706f6f6c3a20746865206f6666657220686173206e6f74206265656e60448201526d206163636570746564207965742160901b6064820152608401610b02565b6000838152606a60209081526040808320858452600a01909152902060020154610100900460ff16156123e95760405162461bcd60e51b815260206004820152602a60248201527f47525420706f6f6c3a20746865206f666665722068617320616c7265616479206044820152696265656e20706169642160b01b6064820152608401610b02565b6000838152606a60209081526040808320858452600a019091529020546001600160a01b031633146124835760405162461bcd60e51b815260206004820152603160248201527f47525420706f6f6c3a20796f7520617265206e6f7420616c6c6f77656420746f60448201527f206d616b65207468697320636c61696d210000000000000000000000000000006064820152608401610b02565b6068546000848152606a60208181526040808420878552600a81018352818520549489905292909152600390910154905163a9059cbb60e01b81526001600160a01b039283166004820152602481019190915291169063a9059cbb906044016020604051808303816000875af1158015612501573d6000803e3d6000fd5b505050506040513d601f19601f820116820180604052508101906125259190613136565b50604051829084907f2b447358a077dedddad023f2778d84afc7de0e9e65674cbface9e94b74916ff090600090a3506000828152606a60209081526040808320848452600a019091529020600201805461ff001916610100179055600192915050565b6125906127ae565b606580546001600160a01b0319166001600160a01b0392909216919091179055565b600054610100900460ff16158080156125d25750600054600160ff909116105b806125ec5750303b1580156125ec575060005460ff166001145b61265e5760405162461bcd60e51b815260206004820152602e60248201527f496e697469616c697a61626c653a20636f6e747261637420697320616c72656160448201527f647920696e697469616c697a65640000000000000000000000000000000000006064820152608401610b02565b6000805460ff191660011790558015612681576000805461ff0019166101001790555b612689612a80565b606880546001600160a01b0386166001600160a01b031990911617905560698390556126d282606580546001600160a01b039092166001600160a01b0319909216919091179055565b8015612718576000805461ff0019169055604051600181527f7f26b83ff96e1f2b6a682f133852f6798a09c465da95921460cefb38474024989060200160405180910390a15b50505050565b6127266127ae565b6001600160a01b0381166127a25760405162461bcd60e51b815260206004820152602660248201527f4f776e61626c653a206e6577206f776e657220697320746865207a65726f206160448201527f64647265737300000000000000000000000000000000000000000000000000006064820152608401610b02565b6127ab81612a2e565b50565b6033546001600160a01b03163314611b8f5760405162461bcd60e51b815260206004820181905260248201527f4f776e61626c653a2063616c6c6572206973206e6f7420746865206f776e65726044820152606401610b02565b6068546040516323b872dd60e01b8152336004820152306024820152604481018390526000916001600160a01b0316906323b872dd906064016020604051808303816000875af1158015611bf4573d6000803e3d6000fd5b82846001600160a01b0316877f4fc5208f862c96a2a2595f09440919e8bda929d3e9b14a6e5fcac7c4cb8f5f598560405161289d91815260200190565b60405180910390a46000868152606a6020526040902080546001600160a01b0319908116331782556001820180546001600160a01b03858116919093161790556068546069546128f39291909116908890612af3565b80516002830180546001600160a01b0319166001600160a01b0390921691909117905560208101516003830155604001516004820155612934858585612af3565b80516005830180546001600160a01b0319166001600160a01b039092169190911790556020808201516006840155604091820151600784015560088301805460ff19166001179055336000908152606c909152908120805491612996836130d2565b919050555050505050505050565b6065546040517f1101a0fd0000000000000000000000000000000000000000000000000000000081526001600160a01b0390911690631101a0fd906129f590889088908890889088906004016131a6565b600060405180830381600087803b158015612a0f57600080fd5b505af1158015612a23573d6000803e3d6000fd5b505050505050505050565b603380546001600160a01b038381166001600160a01b0319831681179093556040519116919082907f8be0079c531659141344cd1fd0a4f28419497f9722a3daafe3b4186f6b6457e090600090a35050565b600054610100900460ff16612aeb5760405162461bcd60e51b815260206004820152602b60248201527f496e697469616c697a61626c653a20636f6e7472616374206973206e6f74206960448201526a6e697469616c697a696e6760a81b6064820152608401610b02565b611b8f612b47565b612b20604051806060016040528060006001600160a01b0316815260200160008152602001600081525090565b50604080516060810182526001600160a01b03909416845260208401929092529082015290565b600054610100900460ff16612bb25760405162461bcd60e51b815260206004820152602b60248201527f496e697469616c697a61626c653a20636f6e7472616374206973206e6f74206960448201526a6e697469616c697a696e6760a81b6064820152608401610b02565b611b8f33612a2e565b634e487b7160e01b600052604160045260246000fd5b604051601f8201601f1916810167ffffffffffffffff81118282101715612bfa57612bfa612bbb565b604052919050565b600082601f830112612c1357600080fd5b813567ffffffffffffffff811115612c2d57612c2d612bbb565b612c40601f8201601f1916602001612bd1565b818152846020838601011115612c5557600080fd5b816020850160208301376000918101602001919091529392505050565b600060208284031215612c8457600080fd5b813567ffffffffffffffff811115612c9b57600080fd5b612ca784828501612c02565b949350505050565b60008060408385031215612cc257600080fd5b50508035926020909101359150565b600060208284031215612ce357600080fd5b5035919050565b80356001600160a01b0381168114610a9257600080fd5b600060208284031215612d1357600080fd5b611b7682612cea565b600080600080600080600080610100898b031215612d3957600080fd5b883567ffffffffffffffff811115612d5057600080fd5b612d5c8b828c01612c02565b9850506020890135965060408901359550612d7960608a01612cea565b9450612d8760808a01612cea565b9350612d9560a08a01612cea565b925060c0890135915060e089013590509295985092959890939650565b60008060008060008060c08789031215612dcb57600080fd5b8635955060208701359450612de260408801612cea565b93506060870135925060808701359150612dfe60a08801612cea565b90509295509295509295565b600067ffffffffffffffff821115612e2457612e24612bbb565b5060051b60200190565b600082601f830112612e3f57600080fd5b81356020612e54612e4f83612e0a565b612bd1565b82815260059290921b84018101918181019086841115612e7357600080fd5b8286015b84811015612e8e5780358352918301918301612e77565b509695505050505050565b600082601f830112612eaa57600080fd5b81356020612eba612e4f83612e0a565b82815260059290921b84018101918181019086841115612ed957600080fd5b8286015b84811015612e8e57612eee81612cea565b8352918301918301612edd565b600080600080600080600060e0888a031215612f1657600080fd5b873596506020880135955060408801359450606088013567ffffffffffffffff80821115612f4357600080fd5b612f4f8b838c01612e2e565b955060808a0135915080821115612f6557600080fd5b612f718b838c01612e99565b945060a08a0135915080821115612f8757600080fd5b612f938b838c01612e2e565b935060c08a0135915080821115612fa957600080fd5b50612fb68a828b01612e2e565b91505092959891949750929550565b600080600080600060a08688031215612fdd57600080fd5b8535945060208601359350604086013592506060860135915061300260808701612cea565b90509295509295909350565b60008060006060848603121561302357600080fd5b61302c84612cea565b92506020840135915061304160408501612cea565b90509250925092565b6000815180845260005b8181101561307057602081850181015186830182015201613054565b506000602082860101526020601f19601f83011685010191505092915050565b602081526000611b76602083018461304a565b6000602082840312156130b557600080fd5b5051919050565b634e487b7160e01b600052601160045260246000fd5b6000600182016130e4576130e46130bc565b5060010190565b86815260c06020820152600061310460c083018861304a565b6001600160a01b039690961660408301525063ffffffff938416606082015291909216608082015260a0015292915050565b60006020828403121561314857600080fd5b81518015158114611b7657600080fd5b80820180821115610c7957610c796130bc565b600081518084526020808501945080840160005b8381101561319b5781518752958201959082019060010161317f565b509495945050505050565b8581526000602060a0818401526131c060a084018861316b565b838103604085015286518082528288019183019060005b818110156131fc5783516001600160a01b0316835292840192918401916001016131d7565b50508481036060860152613210818861316b565b925050508281036080840152613226818561316b565b9897505050505050505056fea26469706673582212203ba55f42f1fe49f574b7d3cb2f8b83b5e885b0662d98061edfa5183dc3f6753164736f6c63430008110033",
    "linkReferences": {},
    "deployedLinkReferences": {}
}