{
    "_format": "hh-sol-artifact-1",
    "contractName": "GrtSatellite",
    "sourceName": "contracts/GrtSatellite.sol",
    "abi": [
        {
            "anonymous": false,
            "inputs": [
                {
                    "indexed": false,
                    "internalType": "uint8",
                    "name": "version",
                    "type": "uint8"
                }
            ],
            "name": "Initialized",
            "type": "event"
        },
        {
            "anonymous": false,
            "inputs": [
                {
                    "indexed": true,
                    "internalType": "address",
                    "name": "_from",
                    "type": "address"
                },
                {
                    "indexed": true,
                    "internalType": "address",
                    "name": "_to",
                    "type": "address"
                },
                {
                    "indexed": true,
                    "internalType": "address",
                    "name": "_token",
                    "type": "address"
                },
                {
                    "indexed": false,
                    "internalType": "uint256",
                    "name": "_amount",
                    "type": "uint256"
                }
            ],
            "name": "LogOfferPaidSatelliteCrossChain",
            "type": "event"
        },
        {
            "anonymous": false,
            "inputs": [
                {
                    "indexed": true,
                    "internalType": "address",
                    "name": "previousOwner",
                    "type": "address"
                },
                {
                    "indexed": true,
                    "internalType": "address",
                    "name": "newOwner",
                    "type": "address"
                }
            ],
            "name": "OwnershipTransferred",
            "type": "event"
        },
        {
            "inputs": [],
            "name": "initializeSatellite",
            "outputs": [],
            "stateMutability": "nonpayable",
            "type": "function"
        },
        {
            "inputs": [],
            "name": "owner",
            "outputs": [
                {
                    "internalType": "address",
                    "name": "",
                    "type": "address"
                }
            ],
            "stateMutability": "view",
            "type": "function"
        },
        {
            "inputs": [
                {
                    "internalType": "address",
                    "name": "token",
                    "type": "address"
                },
                {
                    "internalType": "address",
                    "name": "to",
                    "type": "address"
                },
                {
                    "internalType": "uint256",
                    "name": "amount",
                    "type": "uint256"
                }
            ],
            "name": "payOfferCrossChainERC20",
            "outputs": [
                {
                    "internalType": "bool",
                    "name": "",
                    "type": "bool"
                }
            ],
            "stateMutability": "nonpayable",
            "type": "function"
        },
        {
            "inputs": [
                {
                    "internalType": "address",
                    "name": "to",
                    "type": "address"
                }
            ],
            "name": "payOfferCrossChainNative",
            "outputs": [
                {
                    "internalType": "bool",
                    "name": "",
                    "type": "bool"
                }
            ],
            "stateMutability": "payable",
            "type": "function"
        },
        {
            "inputs": [],
            "name": "renounceOwnership",
            "outputs": [],
            "stateMutability": "nonpayable",
            "type": "function"
        },
        {
            "inputs": [
                {
                    "internalType": "address",
                    "name": "newOwner",
                    "type": "address"
                }
            ],
            "name": "transferOwnership",
            "outputs": [],
            "stateMutability": "nonpayable",
            "type": "function"
        }
    ],
    "bytecode": "0x608060405234801561001057600080fd5b50610703806100206000396000f3fe6080604052600436106100655760003560e01c8063a0a12ea111610043578063a0a12ea1146100de578063e8e0579c146100f1578063f2fde38b1461010657600080fd5b8063715018a61461006a5780637b831bf9146100815780638da5cb5b146100b6575b600080fd5b34801561007657600080fd5b5061007f610126565b005b34801561008d57600080fd5b506100a161009c36600461064d565b61013a565b60405190151581526020015b60405180910390f35b3480156100c257600080fd5b506033546040516001600160a01b0390911681526020016100ad565b6100a16100ec366004610689565b610232565b3480156100fd57600080fd5b5061007f6102d9565b34801561011257600080fd5b5061007f610121366004610689565b6103fe565b61012e61048b565b61013860006104e5565b565b6040517f23b872dd0000000000000000000000000000000000000000000000000000000081523360048201526001600160a01b03838116602483015260448201839052600091908516906323b872dd906064016020604051808303816000875af11580156101ac573d6000803e3d6000fd5b505050506040513d601f19601f820116820180604052508101906101d091906106ab565b50836001600160a01b0316836001600160a01b0316336001600160a01b03167f9ac5e45ddea370881d0f464098f0449421921b247721456aea950d0723c68cac8560405161022091815260200190565b60405180910390a45060019392505050565b600080826001600160a01b03163460405160006040518083038185875af1925050503d8060008114610280576040519150601f19603f3d011682016040523d82523d6000602084013e610285565b606091505b5050905080156102d3576040513481526000906001600160a01b0385169033907f9ac5e45ddea370881d0f464098f0449421921b247721456aea950d0723c68cac9060200160405180910390a45b92915050565b600054610100900460ff16158080156102f95750600054600160ff909116105b806103135750303b158015610313575060005460ff166001145b61038a5760405162461bcd60e51b815260206004820152602e60248201527f496e697469616c697a61626c653a20636f6e747261637420697320616c72656160448201527f647920696e697469616c697a656400000000000000000000000000000000000060648201526084015b60405180910390fd5b6000805460ff1916600117905580156103ad576000805461ff0019166101001790555b6103b561054f565b80156103fb576000805461ff0019169055604051600181527f7f26b83ff96e1f2b6a682f133852f6798a09c465da95921460cefb38474024989060200160405180910390a15b50565b61040661048b565b6001600160a01b0381166104825760405162461bcd60e51b815260206004820152602660248201527f4f776e61626c653a206e6577206f776e657220697320746865207a65726f206160448201527f64647265737300000000000000000000000000000000000000000000000000006064820152608401610381565b6103fb816104e5565b6033546001600160a01b031633146101385760405162461bcd60e51b815260206004820181905260248201527f4f776e61626c653a2063616c6c6572206973206e6f7420746865206f776e65726044820152606401610381565b603380546001600160a01b038381167fffffffffffffffffffffffff0000000000000000000000000000000000000000831681179093556040519116919082907f8be0079c531659141344cd1fd0a4f28419497f9722a3daafe3b4186f6b6457e090600090a35050565b600054610100900460ff166105ba5760405162461bcd60e51b815260206004820152602b60248201527f496e697469616c697a61626c653a20636f6e7472616374206973206e6f74206960448201526a6e697469616c697a696e6760a81b6064820152608401610381565b610138600054610100900460ff166106285760405162461bcd60e51b815260206004820152602b60248201527f496e697469616c697a61626c653a20636f6e7472616374206973206e6f74206960448201526a6e697469616c697a696e6760a81b6064820152608401610381565b610138336104e5565b80356001600160a01b038116811461064857600080fd5b919050565b60008060006060848603121561066257600080fd5b61066b84610631565b925061067960208501610631565b9150604084013590509250925092565b60006020828403121561069b57600080fd5b6106a482610631565b9392505050565b6000602082840312156106bd57600080fd5b815180151581146106a457600080fdfea264697066735822122094ac2252f7a61ac9d603ef47049ac5a3331c61d983a03029f7c576354fd6956c64736f6c63430008110033",
    "linkReferences": {},
    "deployedLinkReferences": {}
}