{
  "_format": "hh-sol-artifact-1",
  "contractName": "GrtSatellite",
  "sourceName": "contracts/GrtSatellite.sol",
  "abi": [
    {
      "anonymous": false,
      "inputs": [
        {
          "indexed": false,
          "internalType": "uint8",
          "name": "version",
          "type": "uint8"
        }
      ],
      "name": "Initialized",
      "type": "event"
    },
    {
      "anonymous": false,
      "inputs": [
        {
          "indexed": true,
          "internalType": "bytes32",
          "name": "_idRequest",
          "type": "bytes32"
        },
        {
          "indexed": true,
          "internalType": "uint256",
          "name": "_idOffer",
          "type": "uint256"
        },
        {
          "indexed": true,
          "internalType": "bytes32",
          "name": "_paymentId",
          "type": "bytes32"
        }
      ],
      "name": "LogOfferPaidSatelliteCrossChain",
      "type": "event"
    },
    {
      "anonymous": false,
      "inputs": [
        {
          "indexed": true,
          "internalType": "address",
          "name": "previousOwner",
          "type": "address"
        },
        {
          "indexed": true,
          "internalType": "address",
          "name": "newOwner",
          "type": "address"
        }
      ],
      "name": "OwnershipTransferred",
      "type": "event"
    },
    {
      "inputs": [
        {
          "internalType": "bytes32",
          "name": "paymentId",
          "type": "bytes32"
        }
      ],
      "name": "getAmountPayment",
      "outputs": [
        {
          "internalType": "uint256",
          "name": "",
          "type": "uint256"
        }
      ],
      "stateMutability": "view",
      "type": "function"
    },
    {
      "inputs": [
        {
          "internalType": "bytes32",
          "name": "paymentId",
          "type": "bytes32"
        }
      ],
      "name": "getChainIdDeposit",
      "outputs": [
        {
          "internalType": "uint256",
          "name": "",
          "type": "uint256"
        }
      ],
      "stateMutability": "view",
      "type": "function"
    },
    {
      "inputs": [
        {
          "internalType": "bytes32",
          "name": "paymentId",
          "type": "bytes32"
        }
      ],
      "name": "getOfferId",
      "outputs": [
        {
          "internalType": "uint256",
          "name": "",
          "type": "uint256"
        }
      ],
      "stateMutability": "view",
      "type": "function"
    },
    {
      "inputs": [
        {
          "internalType": "bytes32",
          "name": "paymentId",
          "type": "bytes32"
        }
      ],
      "name": "getReceiverPayment",
      "outputs": [
        {
          "internalType": "address",
          "name": "",
          "type": "address"
        }
      ],
      "stateMutability": "view",
      "type": "function"
    },
    {
      "inputs": [
        {
          "internalType": "bytes32",
          "name": "paymentId",
          "type": "bytes32"
        }
      ],
      "name": "getRequestId",
      "outputs": [
        {
          "internalType": "bytes32",
          "name": "",
          "type": "bytes32"
        }
      ],
      "stateMutability": "view",
      "type": "function"
    },
    {
      "inputs": [
        {
          "internalType": "bytes32",
          "name": "paymentId",
          "type": "bytes32"
        }
      ],
      "name": "getSenderPayment",
      "outputs": [
        {
          "internalType": "address",
          "name": "",
          "type": "address"
        }
      ],
      "stateMutability": "view",
      "type": "function"
    },
    {
      "inputs": [
        {
          "internalType": "bytes32",
          "name": "paymentId",
          "type": "bytes32"
        }
      ],
      "name": "getTokenPayment",
      "outputs": [
        {
          "internalType": "address",
          "name": "",
          "type": "address"
        }
      ],
      "stateMutability": "view",
      "type": "function"
    },
    {
      "inputs": [],
      "name": "initializeSatellite",
      "outputs": [],
      "stateMutability": "nonpayable",
      "type": "function"
    },
    {
      "inputs": [],
      "name": "owner",
      "outputs": [
        {
          "internalType": "address",
          "name": "",
          "type": "address"
        }
      ],
      "stateMutability": "view",
      "type": "function"
    },
    {
      "inputs": [
        {
          "internalType": "bytes32",
          "name": "idRequest",
          "type": "bytes32"
        },
        {
          "internalType": "uint256",
          "name": "idOffer",
          "type": "uint256"
        },
        {
          "internalType": "uint256",
          "name": "chainIdDeposit",
          "type": "uint256"
        },
        {
          "internalType": "address",
          "name": "token",
          "type": "address"
        },
        {
          "internalType": "address",
          "name": "to",
          "type": "address"
        },
        {
          "internalType": "uint256",
          "name": "amount",
          "type": "uint256"
        }
      ],
      "name": "payOfferCrossChainERC20",
      "outputs": [
        {
          "internalType": "bool",
          "name": "",
          "type": "bool"
        }
      ],
      "stateMutability": "nonpayable",
      "type": "function"
    },
    {
      "inputs": [
        {
          "internalType": "bytes32",
          "name": "idRequest",
          "type": "bytes32"
        },
        {
          "internalType": "uint256",
          "name": "idOffer",
          "type": "uint256"
        },
        {
          "internalType": "uint256",
          "name": "chainIdDeposit",
          "type": "uint256"
        },
        {
          "internalType": "address",
          "name": "to",
          "type": "address"
        }
      ],
      "name": "payOfferCrossChainNative",
      "outputs": [
        {
          "internalType": "bool",
          "name": "",
          "type": "bool"
        }
      ],
      "stateMutability": "payable",
      "type": "function"
    },
    {
      "inputs": [],
      "name": "renounceOwnership",
      "outputs": [],
      "stateMutability": "nonpayable",
      "type": "function"
    },
    {
      "inputs": [
        {
          "internalType": "address",
          "name": "newOwner",
          "type": "address"
        }
      ],
      "name": "transferOwnership",
      "outputs": [],
      "stateMutability": "nonpayable",
      "type": "function"
    }
  ],
  "bytecode": "0x608060405234801561001057600080fd5b50610b5c806100206000396000f3fe6080604052600436106100d25760003560e01c80638da5cb5b1161007f578063d74c9c7411610059578063d74c9c7414610279578063da1688e3146102a9578063e8e0579c146102e2578063f2fde38b146102f757600080fd5b80638da5cb5b146101f25780639d8b43a514610210578063c3d34c701461024057600080fd5b80634b4390ad116100b05780634b4390ad1461016d578063715018a61461018d57806379ab87fa146101a457600080fd5b8063084b4e19146100d75780633457cc0f1461011a57806338d407021461014a575b600080fd5b3480156100e357600080fd5b506101076100f2366004610a16565b60009081526065602052604090206004015490565b6040519081526020015b60405180910390f35b34801561012657600080fd5b50610107610135366004610a16565b60009081526065602052604090206003015490565b61015d610158366004610a4b565b610317565b6040519015158152602001610111565b34801561017957600080fd5b5061015d610188366004610a8a565b6104f8565b34801561019957600080fd5b506101a26106b5565b005b3480156101b057600080fd5b506101da6101bf366004610a16565b6000908152606560205260409020546001600160a01b031690565b6040516001600160a01b039091168152602001610111565b3480156101fe57600080fd5b506033546001600160a01b03166101da565b34801561021c57600080fd5b5061010761022b366004610a16565b60009081526065602052604090206005015490565b34801561024c57600080fd5b506101da61025b366004610a16565b6000908152606560205260409020600201546001600160a01b031690565b34801561028557600080fd5b50610107610294366004610a16565b60009081526065602052604090206006015490565b3480156102b557600080fd5b506101da6102c4366004610a16565b6000908152606560205260409020600101546001600160a01b031690565b3480156102ee57600080fd5b506101a26106c9565b34801561030357600080fd5b506101a2610312366004610ae2565b6107ee565b600080826001600160a01b03163460405160006040518083038185875af1925050503d8060008114610365576040519150601f19603f3d011682016040523d82523d6000602084013e61036a565b606091505b5050905080156104ef576040805160208101889052908101869052606081018590526000906080016040516020818303038152906040528051906020012090508086887fbe27638f27537e74b2ae2953430a5214f96c9d078379565645c39f6ceef3dbc960405160405180910390a46040518060e0016040528060006001600160a01b03168152602001336001600160a01b03168152602001856001600160a01b03168152602001348152602001868152602001888152602001878152506065600083815260200190815260200160002060008201518160000160006101000a8154816001600160a01b0302191690836001600160a01b0316021790555060208201518160010160006101000a8154816001600160a01b0302191690836001600160a01b0316021790555060408201518160020160006101000a8154816001600160a01b0302191690836001600160a01b03160217905550606082015181600301556080820151816004015560a0820151816005015560c08201518160060155905050505b95945050505050565b6040517f23b872dd0000000000000000000000000000000000000000000000000000000081523360048201526001600160a01b03838116602483015260448201839052600091908516906323b872dd906064016020604051808303816000875af115801561056a573d6000803e3d6000fd5b505050506040513d601f19601f8201168201806040525081019061058e9190610b04565b506040805160208101899052908101879052606081018690526000906080016040516020818303038152906040528051906020012090508087897fbe27638f27537e74b2ae2953430a5214f96c9d078379565645c39f6ceef3dbc960405160405180910390a46040805160e0810182526001600160a01b0396871681523360208083019182529688168284019081526060830196875260808301998a5260a083019b8c5260c083019a8b5260009485526065909752919092209151825490871673ffffffffffffffffffffffffffffffffffffffff1991821617835590516001808401805492891692841692909217909155945160028301805491909716911617909455505160038301559151600482015592516005840155905160069092019190915590565b6106bd61087b565b6106c760006108d5565b565b600054610100900460ff16158080156106e95750600054600160ff909116105b806107035750303b158015610703575060005460ff166001145b61077a5760405162461bcd60e51b815260206004820152602e60248201527f496e697469616c697a61626c653a20636f6e747261637420697320616c72656160448201527f647920696e697469616c697a656400000000000000000000000000000000000060648201526084015b60405180910390fd5b6000805460ff19166001179055801561079d576000805461ff0019166101001790555b6107a5610934565b80156107eb576000805461ff0019169055604051600181527f7f26b83ff96e1f2b6a682f133852f6798a09c465da95921460cefb38474024989060200160405180910390a15b50565b6107f661087b565b6001600160a01b0381166108725760405162461bcd60e51b815260206004820152602660248201527f4f776e61626c653a206e6577206f776e657220697320746865207a65726f206160448201527f64647265737300000000000000000000000000000000000000000000000000006064820152608401610771565b6107eb816108d5565b6033546001600160a01b031633146106c75760405162461bcd60e51b815260206004820181905260248201527f4f776e61626c653a2063616c6c6572206973206e6f7420746865206f776e65726044820152606401610771565b603380546001600160a01b0383811673ffffffffffffffffffffffffffffffffffffffff19831681179093556040519116919082907f8be0079c531659141344cd1fd0a4f28419497f9722a3daafe3b4186f6b6457e090600090a35050565b600054610100900460ff1661099f5760405162461bcd60e51b815260206004820152602b60248201527f496e697469616c697a61626c653a20636f6e7472616374206973206e6f74206960448201526a6e697469616c697a696e6760a81b6064820152608401610771565b6106c7600054610100900460ff16610a0d5760405162461bcd60e51b815260206004820152602b60248201527f496e697469616c697a61626c653a20636f6e7472616374206973206e6f74206960448201526a6e697469616c697a696e6760a81b6064820152608401610771565b6106c7336108d5565b600060208284031215610a2857600080fd5b5035919050565b80356001600160a01b0381168114610a4657600080fd5b919050565b60008060008060808587031215610a6157600080fd5b843593506020850135925060408501359150610a7f60608601610a2f565b905092959194509250565b60008060008060008060c08789031215610aa357600080fd5b863595506020870135945060408701359350610ac160608801610a2f565b9250610acf60808801610a2f565b915060a087013590509295509295509295565b600060208284031215610af457600080fd5b610afd82610a2f565b9392505050565b600060208284031215610b1657600080fd5b81518015158114610afd57600080fdfea26469706673582212205f6aca9de8f470c2fb3f64872d92b337a920134f650ac4786117d2606650249264736f6c63430008110033",
  "linkReferences": {},
  "deployedLinkReferences": {}
}